S01800006275696C642F6D6963617A2F6D61696E2E73726563E5
S11300000C945E010C94FD060C9407070C941107E4
S11300100C941B070C9425070C942F070C94410D8A
S11300200C9439070C947D010C947D010C94E51912
S11300300C940B0F0C94C7060C94DD060C94EB0A7D
S11300400C94B6060C943F110C94E6080C947D01B4
S11300500C9462090C947D010C947D010C947D0137
S11300600C94D2060C94B80A0C94970A0C94A20A25
S11300700C94AD0A0C94CB0A0C947A0A0C947D016E
S11300800C948C0A0C947D010C947D01B9114B12D3
S1130090EC123A1340138E13AA13B013E8139E14F0
S11300A0C214D6148F15C2150F16391611171D1741
S11300B01F1722176217000021104220633084406A
S11300C0A550C660E770088129914AA16BB18CC123
S11300D0ADD1CEE1EFF13112100273325222B5529A
S11300E09442F772D662399318837BB35AA3BDD373
S11300F09CC3FFF3DEE36224433420040114E6646A
S1130100C774A44485546AA54BB528850995EEE5C2
S1130110CFF5ACC58DD55336722611163006D77679
S1130120F6669556B4465BB77AA719973887DFF712
S1130130FEE79DD7BCC7C448E5588668A778400841
S1130140611802282338CCC9EDD98EE9AFF9488962
S113015069990AA92BB9F55AD44AB77A966A711AD9
S1130160500A333A122AFDDBDCCBBFFB9EEB799BB2
S1130170588B3BBB1AABA66C877CE44CC55C222C29
S1130180033C600C411CAEED8FFDECCDCDDD2AAD02
S11301900BBD688D499D977EB66ED55EF44E133EB9
S11301A0322E511E700E9FFFBEEFDDDFFCCF1BBF52
S11301B03AAF599F788F8891A981CAB1EBA10CD12C
S11301C02DC14EF16FE18010A100C230E320045034
S11301D0254046706760B9839893FBA3DAB33DC3A7
S11301E01CD37FE35EF3B1029012F322D232354284
S11301F0145277625672EAB5CBA5A89589856EF537
S11302004FE52CD50DC5E234C324A01481046674D3
S1130210476424540544DBA7FAB79987B8975FE786
S11302207EF71DC73CD7D326F2369106B016576623
S11302307676154634564CD96DC90EF92FE9C8990E
S1130240E9898AB9ABA94458654806782768C01873
S1130250E1088238A3287DCB5CDB3FEB1EFBF98BE6
S1130260D89BBBAB9ABB754A545A376A167AF10AC3
S1130270D01AB32A923A2EFD0FED6CDD4DCDAABDF6
S11302808BADE89DC98D267C076C645C454CA23C13
S1130290832CE01CC10C1FEF3EFF5DCF7CDF9BAFC6
S11302A0BABFD98FF89F176E367E554E745E932E63
S11302B0B23ED10EF01E00081C18141011241FBEEB
S11302C0CFEFD0E1DEBFCDBF11E0A0E0B1E0E4E7C5
S11302D0FBE300E00BBF02C007900D92A431B1070D
S11302E0D9F717E0A4E1B1E001C01D92A73CB10722
S11302F0E1F70E94E5170C94B91D0C9400008FB728
S1130300F894992708958FBF08958FB7F894992783
S11303102BB331E023272BBB8FBF0895282F9FB722
S1130320F894E82FFF27EC5AFE4F80818F3F81F429
S1130330E091C007E21771F40BC02093B00704C02A
S1130340FF27EC5AFE4F20832093C00720E007C00C
S113035025E005C08091B0078F3F91F7EECF892F3C
S113036099278FBF822F992708959FB7F89480917A
S11303705B028A3011F020E006C020E080918D01FC
S1130380843009F421E0892F99278FBF222349F073
S113039081E10E948E018FB7F89499271092200171
S11303A006C08FB7F894992721E0209320018FBFCE
S11303B008952FB7F89433278CB95E9A2FBF089508
S11303C0FC016115710519F481E090E008958091B4
S11303D0AE019091AF01892B19F085E090E008956A
S11303E07093550760935407F093AF01E093AE0107
S11303F010928F0110928E0181E0809390015E9A99
S1130400569A808121E030E030938F0120938E0151
S11304100E94D90180E090E00895809131018E7F9F
S1130420809331018EE780936C0161E070E08CE68B
S113043091E00E94E001992708951F931FB7F89453
S11304408091BC07882341F48FE00E948E018823A9
S113045019F481E08093BC07812F99278FBF1F91E6
S11304600895282F9FB7F894662349F0E82FFF27B3
S1130470EC59FD4F8081882311F021E006C0E22F62
S1130480FF27EC59FD4F608320E0892F99278FBF08
S1130490822F99270895E82F8FB7F894282F3327B0
S11304A090E0FF27EC59FD4F8081861709F491E015
S11304B02FBF892F99270895882311F06E9A0895E4
S11304C06E980895882311F06F9A08956F9808958F
S11304D080E00E945C02BA9ABB98B99A6C9A80E058
S11304E00E946202709A6B986A98689881E00E94F0
S11304F05C0208950F931F93CF93DF93182F8FB748
S1130500F894C82FDD270C2F61E080E00E943102AF
S1130510882321F0CFBF85E090E024C080910501BD
S11305208823A1F480911901823081F409C082E00A
S113053080931901109205010E946802B89AC0982C
S11305401093020180E00FBF99270CC0809119011C
S1130550882369F38FB7F8949927109264028FBFA8
S113056081E0F1CFDF91CF911F910F9108951F93F7
S1130570182F81E00E945C021FB9779BFECF8FB1D8
S113058099271F910895FF920F931F93CF93DF93A1
S1130590F82E8B018FB7F894C82FDD2760E080E038
S11305A00E944B02882321F0CFBF80E090E00CC072
S11305B0CFBF8F2D0E94B702812F99270E94B702C7
S11305C0802F0E94B7029927DF91CF911F910F913D
S11305D0FF9008958F929F92AF92BF92CF92DF9235
S11305E0EF92FF920F931F93CF93DF938FB7F894FB
S11305F09927C090B807D090B9078090580290907E
S11306005902C091DD01D091DE0120913501309174
S113061036019AE0A92EB12CAC0EBD1E2A153B055D
S113062008F459018FBF7401EC0EFD1E86010C0FF6
S11306301D1F14C0C114D10419F0F801808101C038
S113064080E00E94B7028114910411F0F7018083C5
S113065021960894E11CF11C0F5F1F4FC5010197FF
S1130660C817D90738F381E00E9462029FB7F89453
S1130670C114D10431F0CC0EDD1EF60180818FB996
S113068001C01FB8D093DE01C093DD01892F9927E3
S11306908FBF80E090E0DF91CF911F910F91FF9089
S11306A0EF90DF90CF90BF90AF909F908F90089580
S11306B02FB7F89433275093360140933501909324
S11306C0B9078093B8077093590260935802109247
S11306D0DE011092DD012FBF452B29F08FB10E945E
S11306E0EA029927089589E00E948E0180E090E053
S11306F008958FB7F8949927109266028FBF0895D2
S1130700442319F00E94850120C03FB7F89420913A
S1130710C607E22FFF27EE0FFF1FE454FE4F808130
S113072091816817790771F4822F8F5F8093C607D0
S11307308C3010F01092C60780914B01882311F081
S113074010924B01832F99278FBF81E00E948E0165
S113075008957FB7F89462B7209138013091390138
S113076040913A0150913B0106B601FE0FC081B79A
S113077092B7280F311D411D511D2F5F3F4F4F4F21
S11307805F4F290F311D411D511D04C0260F311D1E
S1130790411D511D872F99278FBFCA01B9010895A3
S11307A0EF92FF920F931F93E091EF01E1FF2BC0B3
S11307B02091E7013091E8014091E9015091EA016B
S11307C0E090EB01F090EC010091ED011091EE014D
S11307D0621B730B840B950B6E157F0580079107C5
S11307E090F0E0FF04C0ED7FE093EF010CC02E0D0C
S11307F03F1D401F511F2093E7013093E8014093B0
S1130800E9015093EA018DE00E948E011F910F913E
S1130810FF90EF900895DF92EF92FF920F931F9352
S11308208FB7F894282F3327D22E91B782B746B7C3
S1130830981711F041FF02C02FBF6AC08091D40104
S11308408823E1F10E94A903E0906002F090610224
S1130850009162021091630220914D0130914E018A
S113086040914F01509150016E197F09800B910BFB
S1130870621773078407950720F01092D40171E082
S11308801EC02E0D3F1D401F511F809138019091B5
S11308903901A0913A01B0913B01281B390B4A0B55
S11308A05B0B273E31054105510540F4822F223070
S11308B010F070E005C070E082E002C070E086EEE7
S11308C0682F615000B601FCFDCF82B7681709F4A8
S11308D06F5F209138013091390140913A01509174
S11308E03B01DA01C9010196A11DB11D860F911DBD
S11308F0A11DB11D82179307A407B50710F4622F39
S1130900609561BFDFBE772319F08CE00E948E01F1
S11309101F910F91FF90EF90DF900895AFB7F89477
S1130920BB27E1E0E093D40160936002709361021D
S1130930809362029093630220934D0130934E01A1
S113094040934F0150935001AFBF0E940B04089590
S1130950FF920F931F93CF93DF93EC01FFB6F894AC
S113096080919C01882321F580914C019927FC01F9
S1130970EE0FFF1FEE58FE4F00811181D183C0831B
S113098001966CE070E00E942E1D80934C01209132
S11309905C02281719F481E080939C018091B507CB
S11309A0882349F40E948E0181E08093B50703C037
S11309B00E9485018E018F2D99278FBFC801DF9179
S11309C0CF911F910F91FF90089580E8809351017A
S11309D010928C011092B4071092AF07109270011C
S11309E00895CF93DF93FC0115A6DC019E96ED01DB
S11309F01B821A82198280E886A7DF91CF9108951D
S1130A002F923F924F925F926F927F928F929F921A
S1130A10AF92BF92CF92DF92EF92FF920F931F9308
S1130A20CF93DF93CDB7DEB728970FB6F894DEBF28
S1130A300FBECDBF2090970130909801409099014E
S1130A4050909A01662477248824AEE4AA2EF3E811
S1130A50BF2ECC24DD24EE24FF2400E010E0222D60
S1130A60332D442D552D662D772D882D90E00E9431
S1130A70861B29833A834B835C836D837E838F83B8
S1130A809887822E932EA42EB52E2401350100E2E0
S1130A900E94841CA22EB32EC42ED52EC301B201F3
S1130AA096958795779567956A0D7B1D8C1D9D1D81
S1130AB097FF05C09F776F5F7F4F8F4F9F4F609366
S1130AC09701709398018093990190939A012896C5
S1130AD00FB6F894DEBF0FBECDBFDF91CF911F914B
S1130AE00F91FF90EF90DF90CF90BF90AF909F90C9
S1130AF08F907F906F905F904F903F902F900895CC
S1130B008FB7F8946091DF017091E0012CB53DB589
S1130B1006B602FE04C06F5F7F4F2CB53DB5992722
S1130B208FBF88279927CB01772766274427552726
S1130B30622B732B842B952B0895EF92FF920F93C6
S1130B401F930E9480057B018C012091A6013091A6
S1130B50A7014091A8015091A9018091A001909111
S1130B60A101A091A201B091A301820F931FA41F20
S1130B70B51FE216F3060407150730F08217930732
S1130B80A407B50758F005C082179307A407B50753
S1130B90E0F5E816F9060A071B07B8F59C01AD0154
S1130BA02E193F09400B510B213060E8360760E0F5
S1130BB0460760E0560768F180E090E8A0E0B0E006
S1130BC0E80EF91E0A1F1B1FE092A601F092A7016E
S1130BD00093A8011093A90180E090E8AFEFBFEF64
S1130BE0E80EF91E0A1F1B1F205030484040504099
S1130BF02093A0013093A1014093A2015093A3013B
S1130C0020E030E840E050E014C020E030E040E074
S1130C1050E08093A6019093A701A093A801B093FC
S1130C20A9011092A0011092A1011092A2011092A8
S1130C30A301A901B7012CB53DB5C9018E199F09BE
S1130C4003968417950720F0B9016D5F7F4F02C0AA
S1130C50640F751F6115710511F461E070E0615056
S1130C6070407BBD6ABD80E186BF87B7806187BF66
S1130C701F910F91FF90EF9008950F931F930FB75B
S1130C80F89411276093A6017093A7018093A8019B
S1130C909093A9012093A0013093A1014093A20154
S1130CA05093A3010E949D050FBF1F910F910895BA
S1130CB08FB7F89499276091DA048FBF85E0689F15
S1130CC0B0011124625D7E4F706488E10E94C3020A
S1130CD008951F931FB7F89480916F01882319F426
S1130CE060E070E009C060E08091B707882309F4F0
S1130CF061E081E06827772780919401882319F4C3
S1130D0080E090E00AC090E080916902882309F4B1
S1130D1091E081E09827892F9927762F6627770F0E
S1130D20770F770F24E0880F991F2A95E1F7826ED9
S1130D309262682B792B81E10E94C302812F99274B
S1130D408FBF1F91089597B79F7D97BF90E296BF7D
S1130D50882319F08EB5806402C08EB58F7B8EBD5A
S1130D6087B7806287BF80E090E008951F920F925A
S1130D700FB60F9211248F9383B783BF00B600FC84
S1130D80FDCF8F910F900FBE0F901F901895789400
S1130D901F920F920FB60F9211240F900FBE0F9057
S1130DA01F90189578941F920F920FB60F921124EA
S1130DB00F900FBE0F901F90189578941F920F926A
S1130DC00FB60F9211242F933F938F939F932FB7B6
S1130DD0F89433278091DF019091E001019690937C
S1130DE0E0018093DF012FBF9F918F913F912F915D
S1130DF00F900FBE0F901F9018951F920F920FB671
S1130E000F9211240F900FBE0F901F9018951F92F0
S1130E100F920FB60F9211240F900FBE0F901F90D8
S1130E2018951F920F920FB60F9211240F900FBEB8
S1130E300F901F9018951F920F920FB60F921124C6
S1130E400F900FBE0F901F9018951F920F920FB620
S1130E500F9211240F900FBE0F901F9018951F92A0
S1130E600F920FB60F9211240F900FBE0F901F9088
S1130E7018951F920F920FB60F9211240F900FBE68
S1130E800F901F901895E6EBF0E06927660FF11DAF
S1130E90E60FF11DC895982F802D3196C8959025A1
S1130EA00895982F80912C01882389F5992379F549
S1130EB031E030932C0180910C0180932D0120911D
S1130EC02101822F817080935201809111019091B0
S1130ED0120190932F0180932E018091220180931F
S1130EE0300132273170267EE32FFF27EE0FFF1FDC
S1130EF0E35FFE4F808191819093120180931101F1
S1130F00232B2093210184E10E948E010895809176
S1130F10210180FF02C08B7F01C08D7F809321015E
S1130F2008950F931F93082F162F80918D01813000
S1130F30D9F0813038F0823009F44AC0833009F0A6
S1130F400EC159C0002309F43EC110924E071092FD
S1130F504D0710925E021092560710929101109262
S1130F60E2011092E1011FC1002309F02CC180911C
S1130F70E1019091E2010E9443079093E201809382
S1130F80E10182E080938D0110935607143409F037
S1130F90E6C00BC18695869503C080912101869594
S1130FA0817009F0DCC080912101992311F08460E3
S1130FB001C082608093210180912101877E886035
S1130FC080932101109222018FEF80930C01FBC0CA
S1130FD0002309F0C4C0609391018091E1019091D4
S1130FE0E2010E9443079093E2018093E10183E0D0
S1130FF080938D01E8C080915E028F3F09F4AFC0F9
S1131000002309F447C0823008F4A9C0E0914D07D9
S1131010EE2309F4D1C04E2F4150E42FFF27E35BA8
S1131020F84F82819927382F2227442311F4E2E0D4
S113103002C0E42FE150FF27E35BF84F8281992738
S1131040282B392B8091E1019091E201281739076F
S113105009F085C080E00E94510730919101809190
S1131060D5012091D601982F9F5F963008F090E02B
S1131070921709F474C0E82FFF27EB52FE4F328316
S11310808F5F8093D501863010F01092D5010E94B5
S11310901D0265C0823008F44EC0E0914E07FF2760
S11310A0E35BF84F8281482F5527342F209121018B
S11310B0822F869586958695837099278130910530
S11310C019F00297F9F40EC0277E206120932101C4
S11310D0442311F485E001C080E080932201309321
S11310E00C0110C080912201843360F4E09111015D
S11310F0F0911201E80FF11D4083809122018F5F6E
S11311008093220180914E07E82FFF27E35BF84F7D
S113111062818F5F80934E07833010F010924E07E8
S113112077278091E1019091E2010E944307909317
S1131130E2018093E10180914D07E82FFF27E35BF3
S1131140F84F12838F5F80934D07833010F0109215
S11311504D0780915E028F5F80935E0234C01092CF
S11311604E0710924D0710928D0110925E0210925C
S11311705607109291011092E2011092E1018091C0
S113118031018D7F8093310181E00E94510780916C
S11311902001882331F084E080938D010E94B50101
S11311A012C0002381F081E023CF80912101982F88
S11311B0917080FDEFCEF1CE809151079927382FA1
S11311C0222742E036CF1F910F9108951F920F926C
S11311D00FB60F9211242F933F934F935F936F9306
S11311E07F938F939F93AF93BF93EF93FF935F9BF3
S11311F03DC06CB1E091E301F091E4013097F9F066
S11312008091BA079091BB07E80FF91F608301969C
S11312109093BB078093BA072091C4073091C50708
S11312208217930718F11092E4011092E301809160
S11312305A028330D9F0579810925A0217C06E3769
S113124019F460E081E010C0809131016D3721F420
S11312508260809331010AC081FF05C08D7F809335
S1131260310180E2682780E00E949107FF91EF91AD
S1131270BF91AF919F918F917F916F915F914F91AA
S11312803F912F910F900FBE0F901F901895982F9C
S11312908D57823068F480913101816080933101EF
S11312A080E2892780935D028DE780936C0102C000
S11312B090936C0161E070E08CE691E00E94E001A3
S11312C09927089578941F920F920FB60F921124C4
S11312D0FF920F931F932F933F934F935F936F93BB
S11312E07F938F939F93AF93BF93CF93DF93EF93AA
S11312F0FF9320918E0130918F018091540790913A
S113130055072817390780F4E091AE01F091AF0139
S1131310E20FF31F80812F5F3F4F30938F012093A3
S11313208E010E94D901D0C01092AF011092AE017B
S11313301092900156988091310180FF0EC08E7FEB
S11313408093310180915D0280936C0161E070E0D3
S11313508CE691E00E94E001B7C080915B0284308A
S113136009F494C0853040F4823021F18330B8F51B
S1131370813009F0A4C00DC0863009F495C08630D0
S113138008F48BC0873009F496C0883009F097C000
S113139099C08091A5010E944709182F83E080938A
S11313A05B026091A5018091C2079091C3070E94DE
S11313B0430710C08091B3070E944709182F83E0A8
S11313C080935B026091B3078091C2079091C30739
S11313D00E9443079093C3078093C2076EC0FFB671
S11313E0F894E091E601FF27EE0FFF1FEB54FE4F48
S11313F080810E944709082F1091E601C12FDD2743
S1131400FE01EE0FFF1FEB54FE4F60818091C20777
S11314109091C3070E9443079093C3078093C20728
S113142020919F012F5F20939F01113039F5809106
S11314302801E0912301F0912401E80FF11DE081DE
S11314408F5F8093280190912701981730F482E0F0
S11314508093B60140E050E002C04E2F5527DE01D4
S1131460AA0FBB1FFD01EC54FE4F8081823031F086
S11314702F3F21F0AB54BE4F4C9303C084E08093C4
S11314805B02102F8F2D99278FBF17C08091C20741
S11314900E944709182F85E00BC08091C3070E9462
S11314A04709182F86E004C00E940D02182F87E018
S11314B080935B0202C088E003C0112329F089E015
S11314C080935B020E941D02FF91EF91DF91CF9107
S11314D0BF91AF919F918F917F916F915F914F9148
S11314E03F912F911F910F91FF900F900FBE0F907E
S11314F01F9018951F920F920FB60F9211248F937D
S113150080919B0087FF02C080919C008F910F9077
S11315100FBE0F901F90189578941F920F920FB6DC
S11315200F9211240F900FBE0F901F90189578946E
S11315301F920F920FB60F9211240F900FBE0F90AF
S11315401F90189578941F920F920FB60F92112442
S11315500F900FBE0F901F90189578941F920F92C2
S11315600FB60F9211240F900FBE0F901F90189575
S113157078941F920F920FB60F9211248F939F931A
S113158080918800909189009F918F910F900FBE58
S11315900F901F90189578941F920F920FB60F9288
S11315A011242F933F938F939F932FB7F89433274E
S11315B080919D0190919E01019690939E0180934C
S11315C09D012FBF9F918F913F912F910F900FBE3F
S11315D00F901F9018951F920F920FB60F9211241F
S11315E02F933F934F935F936F937F938F939F9327
S11315F0AF93BF93EF93FF9383B783BF00B600FC11
S1131600FDCF81B799270196AA27BB2720913801DE
S11316103091390140913A0150913B01280F391F13
S11316204A1F5B1F209338013093390140933A01DC
S113163050933B0178940E940B04FF91EF91BF916A
S1131640AF919F918F917F916F915F914F913F9156
S11316502F910F900FBE0F901F9018950F931F930B
S1131660182F0FB7F89461E080E00E9431028823BC
S113167071F510930201809105018823A9F58091E9
S11316801901823089F588E00CC00E9468028091BB
S11316901901882349F481E08093190110927101A2
S11316A08AE00E948E012AC08091A4018F3F31F507
S11316B0E0910401EE2311F11CC01092030104C057
S11316C0FF27EC55FE4F10821092040117C081E0F1
S11316D090E002C0880F991F1A95E2F72091180133
S11316E0282B209318010AC0809119018823E1F660
S11316F0CCCF809103018F3F19F7DFCF802F99273B
S11317008FBF80E090E01F910F9108951F9383E0B5
S11317100E947A029927182F882319F083E00E94E7
S11317202E0B812F99271F910895CF92DF92EF926C
S1131730FF920F931F93CF93DF938C01F62E6A01D0
S1131740E22E8FB7F894C82FDD2760E080E00E9476
S11317504B02882321F0CFBF80E090E01EC0CFBFB2
S11317600F0D111D802F80680E94B702F82E169568
S11317700795802F807C0E94B7020E2D0AC0EE2DA3
S1131780FF27E01BF109EC0DFD1D80810E94B702CB
S113179001500023A1F78F2D9927DF91CF911F913D
S11317A00F91FF90EF90DF90CF900895CF93DF9348
S11317B0CDB7DEB724970FB6F894DEBF0FBECDBF0A
S11317C08FB7F8949927209192013091930129833E
S11317D0232F33272A832091AA013091AB012B8335
S11317E0232F33272C838FBF24E0AE014F5F5F4F3D
S11317F060E088E691E00E94950B24960FB6F89479
S1131800DEBF0FBECDBFDF91CF910895EF92FF925F
S11318101F93CF93DF93E0909501F0909601F70129
S113182082A59927182F882309F41FE1C098809175
S11318306E01811749F0612F77276F717070606EA8
S1131840706885E10E94C30210936E01F701108154
S11318508FB7F894C82FDD2760E080E00E944B0228
S1131860882311F0CFBF12C0CFBF8EE390E09093D6
S1131870B1018093B0018EE30E94B7021150412F51
S1131880552760E070E0C7010E945803DF91CF91B3
S11318901F91FF90EF900895FF920F931F93CF93A2
S11318A0DF93EC01F62E61E082E00E94310288238E
S11318B019F085E090E069C08091DC048F5F80932B
S11318C0DC0481508B838FB7F894082F112762E0D2
S11318D081E00E944B02882329F40FBF0E94790300
S11318E081E052C08FB7F894992724E020936502D1
S11318F08FBFD093BB01C093BA010FBF8DE0F80E28
S1131900FE01F192898199278072907089831182F6
S113191089819927816498688983892F992781838C
S11319201CA618A619A619AA18AA1FA680E88EA78D
S113193061E0609368024091BA015091BB018FB796
S1131940F894282F332780911A0190911B01883035
S1131950910511F0019711F02FBF15C082E090E0BE
S113196090931B0180931A016093C10750939601D1
S113197040939501109237012FBF0E94860B882354
S113198011F40E94060C80E09927DF91CF911F91FA
S11319900F91FF9008951F93CF93DF93182F8FB764
S11319A0F894C82FDD2760E080E00E944B02882372
S11319B021F0CFBF80E090E005C0CFBF812F0E940F
S11319C0B7029927DF91CF911F910895EF92FF926B
S11319D00F931F93CF93DF93182F7B01042F8FB79F
S11319E0F894C82FDD2760E080E00E944B02882332
S11319F021F0CFBF80E090E014C0CFBF1064812FEE
S1131A0099279093B1018093B0010E94B702182FD7
S1131A10402F5527B70180E090E00E945803812FA2
S1131A209927DF91CF911F910F91FF90EF90089527
S1131A30C098609132017091330141E08FE30E94BC
S1131A40E60C089582E090E090936A018093690126
S1131A5081E080938C0120E030E0809102018430A9
S1131A6011F421E030E0232B29F484E00E947A026F
S1131A70882319F40E94180D089584E00E942E0B07
S1131A8008951F920F920FB60F9211242F933F9334
S1131A904F935F936F937F938F939F93AF93BF9372
S1131AA0EF93FF938091690190916A01019749F442
S1131AB082E090E090936A01809369010E94220D74
S1131AC005C0809170018F5F80937001FF91EF9149
S1131AD0BF91AF919F918F917F916F915F914F9142
S1131AE03F912F910F900FBE0F901F9018951F9349
S1131AF080911801882309F04BC0109102011F3F07
S1131B0009F046C060E00E944B02882309F440C0FB
S1131B1081E08093DB04809153018823E1F11092EA
S1131B20DB0485E090E045C0923069F5C09A80916D
S1131B30030120E030E08F3F11F421E030E0232B5B
S1131B40E9F4109305018F3F19F42FEF30E00DC035
S1131B50282F3327F901EC55FE4F80818093030130
S1131B608F3F11F41093040110832093710181E0DD
S1131B70809319018AE00E948E0105C0109305012B
S1131B801092190111C080911901882369F00FC0C6
S1131B9081E090E00EC080910501909119018823A5
S1131BA019F2923021F0EFCF80E00E945C0280E0D5
S1131BB090E01F9108951F93CF93DF939FB7F894FC
S1131BC0C92FDD271C2F90910201981721F0CFBF58
S1131BD081E090E03AC08FEF8093020130911801C8
S1131BE03323F1F48FB7F8949927109264028FBFCE
S1131BF00E94770DCFBF11C02093020181E090E0D5
S1131C0002C0880F991F4A95E2F7809538233093D4
S1131C10180188E00E948E011FBF80E090E015C08B
S1131C2080E065E0E32FFF270E940E1D292F492F36
S1131C305527CF01042E02C0959587950A94E2F7A3
S1131C4080FDDACF822F8F5FEFCFDF91CF911F918D
S1131C5008951F93CF93DF938FB7F894C82FDD2790
S1131C601C2F8091690190916A01892B29F484E0E9
S1131C700E94DB0DCFBF1EC010928C0180917001B9
S1131C80882311F0B79904C00E9908C0882319F06D
S1131C908150809370010E94220D0BC081E090E07E
S1131CA090936A01809369011092700184E00E940C
S1131CB0DB0D1FBFDF91CF911F9108950E94E504B2
S1131CC0C09AC09888E00E94CB0C88E00E94CB0C9C
S1131CD0C09A84E00E94DB0D0E94290E08951F9390
S1131CE0182F81E090E090931B0180931A011092C9
S1131CF053010E94770D8FB7F8949927109314011C
S1131D008FBF84E00E948E011F910895CF92DF92CD
S1131D10EF92FF920F931F93CFB6F894DD240E94A5
S1131D200005DC01CB0166E470E00E941A1D6BE043
S1131D30E62EF12CE80EF91EF092BE07E092BD07E4
S1131D400E94800500271127A80197010E943D06E3
S1131D50CFBE1F910F91FF90EF90DF90CF90089529
S1131D601F93CF93DF938FB7F894C82FDD271C2FD1
S1131D7080911A0190911B010897C9F489E00E948F
S1131D80CB0C83E00E94DB0DC09A81E090E090933D
S1131D901B0180931A018FB7F894992723E02093AD
S1131DA014018FBF84E00E948E01CFBF30C0C09861
S1131DB08091C107882311F085E001C084E00E946E
S1131DC0CB0C83FD09C080E00E94CB0C83FF04C0D0
S1131DD085E090E020E003C083E090E021E0909370
S1131DE01B0180931A01C09A1FBF222341F0109255
S1131DF0370183E00E94DB0D0E94860E08C00E941A
S1131E00800520E431E040E050E00E943D06DF918F
S1131E10CF911F91089578941F920F920FB60F924D
S1131E2011241F932F933F934F935F936F937F934B
S1131E308F939F93AF93BF93EF93FF9387B78F7E57
S1131E4087BF78941FB7F8948091A0019091A10165
S1131E50A091A201B091A3010097A105B10509F0D9
S1131E6051C080911A0190911B018530910561F157
S1131E708630910530F48330910549F0049781F55B
S1131E801AC087309105F1F0089751F514C0869B6C
S1131E900FC084E090E090931B0180931A010E948C
S1131EA0800527E030E040E050E00E943D0618C085
S1131EB00E94860E15C00E94860B882389F40E9416
S1131EC0B00E0EC080E00AC089E00E94CB0C81E015
S1131ED00E94A30683E00E94DB0D87E00E946F0E40
S1131EE08091150190911601019771F482E090E0C0
S1131EF09093160180931501DE98DE9A80E00E948B
S1131F002E0B02C00E949D05812F99278FBFFF9140
S1131F10EF91BF91AF919F918F917F916F915F915D
S1131F204F913F912F911F910F900FBE0F901F90D3
S1131F301895EF92FF920F931F93CF93DF938B012A
S1131F408091B0019091B10186FF40C18F7B8F33A6
S1131F5009F08EC1C0913201D09133015881509360
S1131F606B018091690190916A018530910509F4B2
S1131F7043C08630910509F48AC0029709F01FC155
S1131F8085E090E090936A0180936901409151014A
S1131F90852F99270196242F3327281739074CF1C9
S1131FA0B79906C00E9904C0451B41504093510196
S1131FB040916B014A32E8F44423A1F0BE016F5F03
S1131FC07F4F483018F047E050E007C086E090E0CB
S1131FD090936A0180936901552780E090E00E9404
S1131FE0580346C110928C01C09A84E00E94DB0D14
S1131FF0E3C00E945E0E3CC186E090E090936A01CB
S11320008093690180919401882309F439C08091F7
S113201069028823A9F5898185FF32C08F814E81A9
S11320202FB7F89433276091AA017091AB012FBFA9
S11320309927982F88275527842B952B8617970740
S113204059F08F812E819927982F88273327822B47
S1132050932B8F5F9F4FA1F489818770813081F426
S1132060C09AC0988AE00E94CB0CC09AC098409154
S11320706B0147502896BE018FE30E94E60CF8C01E
S113208040916B01475055272896BE01A6CFC09AB0
S113209080917001882339F484E00E94DB0D8091E3
S11320A07001882311F0B7990AC00E9B08C0909163
S11320B0AF07992321F080916B018B3038F4809124
S11320C03201909133010E94F1043DC0913001F539
S11320D0E091B407FF27EE0FFF1FEE0FFF1FE55A35
S11320E0F84F2081318142815381E0913201F09196
S11320F0330121ABBB27A52F942F832F80ABCA01BB
S1132100AA27BB2787A7252F33274427552726A788
S11321108091B4079927019668E070E00E942E1D13
S11321208093B4078091AF0781508093AF078823D1
S113213051F080913201909133010E94F104109288
S1132140B4071092AF0780916B01FE01E80FF11DF7
S1132150808187FF31C0012B79F169816770E0913B
S11321603201F0913301623019F5A0919501B091DB
S11321709601109709F180911A0190911B0107971C
S1132180D9F4ED019B8183819817B1F487B78F7ED1
S113219087BF908181E08CA7E90FF11D8291319670
S11321A088A780818F7789A780E00E946F0E04C082
S11321B0613011F48BE02AC00E94290E59C010929C
S11321C08C01C09A84E00E94DB0D52C08E3309F06A
S11321D04FC0C09A80911A0190911B010897C9F4CD
S11321E0C09889E00E94CB0CC09A83E00E94DB0D6A
S11321F081E090E090931B0180931A018FB7F894CB
S1132200992723E0209314018FBF84E00E948E015C
S11322102FC08091C107882349F484E090E0909313
S11322201B0180931A010E94B00E22C083E00E9419
S1132230DB0D83E090E090931B0180931A010E94D0
S11322400005DC01CB0166E371E00E941A1D7BE00E
S1132250E72EF12CE80EF91EF0924A01E0924901B2
S11322600E94800500271127A80197010E943D06BE
S1132270DF91CF911F910F91FF90EF9008951F92DE
S11322800F920FB60F9211242F933F934F935F93A6
S11322906F937F938F939F93AF93BF93EF93FF932A
S11322A02FB1E0915802F0915902309739F08091A2
S11322B0DD019091DE01E80FF91F20838091DD019B
S11322C09091DE0101969093DE018093DD0180E020
S11322D00E94620240913501509136018091DD01E6
S11322E09091DE018417950718F40E94EA021CC03D
S11322F060915802709159028091B8079091B90782
S113230010925902109258021092B9071092B8070D
S113231010923601109235011092DE011092DD0107
S11323202FB120E00E94990FFF91EF91BF91AF91DF
S11323309F918F917F916F915F914F913F912F91D9
S11323400F900FBE0F901F901895EF92FF920F936E
S11323501F93CF93DF93E82FFF27E531F10508F0B2
S113236010C6EA5BFF4FEE0FFF1F0590F491E02DBE
S113237009948FB7F894282F3327422F90914C015A
S113238080915C02981739F480919C01882319F498
S11323901092B50791C04FBFE0915C02FF27EE0F8A
S11323A0FF1FEE58FE4F0190F081E02D80818D508B
S11323B0482F5527642F4093E501B3857781A68183
S11323C0818520859927982F88273327822B932B63
S11323D0359627E0EF0119922A95E9F7359780871A
S11323E0892F99278783E0915C02FF27EE0FFF1F57
S11323F0EE58FE4F0190F081E02D6D3108F03BC5A1
S1132400872F9927982F88272A2F3327822B932BBE
S11324108683892F99278583B387418780912501F6
S113242090912601892B09F026C52FB7F8943327FC
S113243085E08093280110922901F0932401E09310
S1132440230182E090E0909326018093250110926D
S11324502B0110922A01645F609327012FBF9FB75D
S1132460F8948091B601882311F020E006C081E041
S11324708093B6011092B70121E0892F99278FBF6D
S1132480222309F479C50E941D028FB7F894992775
S11324902BB332E09AC08FB7F894282F3327422FFA
S11324A0909134018091C607981741F480914B01B3
S11324B0882321F410923C012FBF63C54FBFE091E4
S11324C0C607FF27EE0FFF1FE454FE4F0190F08173
S11324D0E02D8185682F7727B62F5581A6818781C6
S11324E020859927982F88273327822B932B438580
S11324F02CE0EF01322F19923A95E9F7B896EF01E3
S113250019922A95E9F7B8978087892F99278187A7
S1132510BD3108F05DC0852F9927982F88272A2F71
S11325203327822B932B43878683892F992787838D
S11325302FB7F894332780919201909193012FBF84
S11325408483892F992785832FB7F8943327809123
S11325500601909107012FBF8087892F99278187D2
S113256080910901882361F0109209018FE3828729
S1132570CF010E944C0C9927282F8823A9F417C057
S11325808B2F99279093B9018093B801F0931F0181
S1132590E0931E018EE00E948E0180910901882340
S11325A049F489E090E00AC08FEF80930901822FFB
S11325B0992704C010929B0180E090E0892B41F49C
S11325C08FB7F89499272BB334E023272BBBD2C4BD
S11325D00E94850181E073C40FB7F894112781E04C
S11325E00E94A30681E0E82EF12CF0921B01E092F8
S11325F01A0110921C011092530110926E010FBF28
S11326000FB7F89411270E94E504F0926A01E09252
S1132610690110928C0189B78F7B89BF80E488BFE0
S11326208AB780628ABF8AB78F7E8ABF89B780647F
S113263089BF0FBF8FB7F894C82FDD27809115018C
S113264090911601049719F483E00E94CB0CCFBF3C
S11326500FB7F8941127C09A80E00E94DB0D0FBFDA
S11326608FB7F894992722E0209365028FBF1092C8
S11326704B0187C48FB7F894992710926502A7CFAE
S11326808FB7F8949927F09014018FBF63E081E02D
S11326900E944B02882359F10FB7F8941127109226
S11326A01B0110921A0187B78F7E87BF87B78F7D72
S11326B087BF83E00E94DB0DC09A0FBF0FB7F89469
S11326C0112710926A01109269010E94E504C09AD0
S11326D089B78F7B89BF0FBF109216011092150125
S11326E0DE98DD98DE9A83E00E948E0107C08FB7E2
S11326F0F894992722E0209365028FBFC091BA0114
S1132700D091BB010E9479038A858F3309F039C4C3
S11327108FEF809309014F2DBE01A3C28FB7F894A8
S1132720282F3327122F8091BF07882309F0C4CEA6
S113273081E08093BF078091150190911601049761
S113274021F481E00E942E0B03C086E00E948E01DA
S11327501FBF17C48FB7F89499271092BF0737CFBC
S11327608FB7F894282F332780911701882309F015
S1132770A3CE2FBF80B3992716E0969587951A9517
S1132780E1F7182F11709091AC018091AD01891778
S1132790D9F01917C9F484E090E09093160180935E
S11327A015018FB7F894992721E0209317018FBF63
S11327B060E070E08DE10E94C3020E94D60BC09AD3
S11327C0C09882E00E948E011093AD0187E077C328
S11327D08FB7F8949927109102018FBF123009F432
S11327E060C0133030F4112359F0113009F0C9C31B
S11327F043C0133009F46FC0143009F0C2C39BC046
S1132800C0988FB7F894C82FDD2780911501909157
S11328101601029779F583E090E090931601809376
S1132820150168E170E08DE10E94C30281E08093AC
S1132830AC011092170180B39927B6E0969587955D
S1132840BA95E1F7817090708093AD0187E00E94A2
S11328508E0181E00E94CB0C6FE772E08CE10E9454
S1132860C3020E9458060E94690666E57AE287E17F
S11328700E94C302CFBF85C3C09886E00E94CB0CE0
S11328800E9458060E9469060E94D60BC09AC098FE
S113289083E00E94CB0CC09A81E00E94DB0D86E0AD
S11328A00EC3C0988FB7F894C82FDD2760E080E08E
S11328B00E944B02882311F0CFBF0AC0CFBF83E52B
S11328C00E94B70280E00E94B70280E00E94B70233
S11328D0C09A82E02DC08FB7F894992720911A01ED
S11328E08FBF243039F0283041F0223001F50E94A6
S11328F0060C47C30E94B00E44C3C09889E00E94EE
S1132900CB0CC09A83E00E94DB0D8FB7F894992713
S113291021E030E030931B0120931A018FBF8FB761
S1132920F8949927109314018FBF84E0C8C283E000
S11329300E94DB0D26C30E94180D23C30FB7F89421
S113294011274091350150913601609158027091E0
S113295059028091B8079091B907109259021092C8
S113296058021092B9071092B807109236011092CB
S113297035011092DE011092DD0120E00E94990FD2
S11329800FBFFFC22FB7F894332780917101809352
S1132990050182E0809319012FBF809105018823EE
S11329A009F0EFC2B89AC09888E089C2A0913201B8
S11329B0B09133011C91FD01E10FF11D8081881F4D
S11329C08827881FED018BA780818F7789A731978E
S11329D0808188A7E0913201F09133018FB7F89498
S11329E0992720916F018FBF2223F9F087814681B7
S11329F02FB7F89433276091AA017091AB012FBFD0
S1132A009927982F88275527842B952B8617970766
S1132A1061F0878126819927982F88273327822B75
S1132A20932B8F5F9F4F09F071C01D3008F46EC067
S1132A30C0913201D0913301898528859927582F77
S1132A4044273327422B532B6B818FEF8093B60798
S1132A508FB7F894782F20E030E0EDE3F1E0808147
S1132A6091818417950729F48281861731F1209387
S1132A70B6072F5F3F4F33962430310581F77FBF70
S1132A809091B6073FB7F8949F3F21F080911D01C4
S1132A908917A9F420911D01822F9927FC01EE0FBB
S1132AA0FF1FE80FF91FE35CFE4F518340836283ED
S1132AB02F5F237020931D010EC07FBF23C0892F79
S1132AC09927FC01EE0FFF1FE80FF91FE35CFE4F8F
S1132AD0518340836283832F99278FBF8BA58823DB
S1132AE089F08A858F3371F4A12FAD50FE013C9695
S1132AF02FB7F89433272FBF4A2FBF01CE010E946E
S1132B00A804EC01D0933301C09332018FB7F89439
S1132B10992710928C018FBF0E94290E32C2809196
S1132B206D01882361F52091570730915807409132
S1132B30590750915A07EFB7F894FF276091600244
S1132B40709161028091620290916302E0904D0164
S1132B50F0904E0100914F01109150016E0D7F1DB8
S1132B60801F911FEFBF209357073093580740935E
S1132B70590750935A0710926D010E948E040E94C7
S1132B80A9033AC00E94A9037B018C018FB7F89472
S1132B9099271092D4018FBF8091EF0181FFF1C179
S1132BA08091E7019091E801A091E901B091EA01D7
S1132BB0A8019701281B390B4A0B5B0BDA01C901E9
S1132BC02091EB013091EC014091ED015091EE0127
S1132BD0281B390B4A0B5B0B2F3F8FEF38078FEF06
S1132BE048078FE7580709F4CCC1121613061406D8
S1132BF015062CF0C801B7010E94D003C2C120936E
S1132C005707309358074093590750935A0781E068
S1132C1080936D01C801B7010E948E04B2C19091E6
S1132C209B0180910901981709F4ABC190930901A4
S1132C309923D9F4C0911E01D0911F016091B8016C
S1132C408FE38A87CE010E944C0C482F55274423DA
S1132C5009F497C18FEF8093090160911E0170916F
S1132C601F018B850E9480038CC18FEF8093090123
S1132C7088C18FB7F8941092BC0720915B0240E0A2
S1132C80283009F441E030E0293009F431E04423EC
S1132C9011F4332351F010925B02E091E601FF2717
S1132CA0EE0FFF1FEC54FE4F108299278FBF442371
S1132CB011F4332319F18091B3078F5F8093B30725
S1132CC08091A5018334A1F49FB7F8942091D60193
S1132CD08091D501821741F0822F8F5F8093D601B6
S1132CE0863010F01092D601892F99278FBF0AC021
S1132CF0A0E0442309F4A1E071E006C0222311F00E
S1132D0010E069C0A0E070E08FB7F8949927209193
S1132D1020018FBF222341F08FB7F89499272AE02E
S1132D2020935B028FBF43C08FB7F89499276091BB
S1132D30B4014091B6018FBF8FB7F894282F332781
S1132D4050E09091D5018091D601981709F451E093
S1132D502FBF552349F5662339F55FB7F89482E010
S1132D608093B4018FB7F894282F332740E09091D3
S1132D70D5018091D601981709F441E02FBF44236F
S1132D8011F080E006C0E091D601FF27EB52FE4F20
S1132D9082818093B501852F99278FBF83E4809327
S1132DA0A5011092E6010BC04150423010F010E032
S1132DB007C085E48093A50181E08093E60111E0DA
S1132DC0772349F08FB7F8949927A09329018FBFEF
S1132DD083E10E948E0180915B028A3019F40E9483
S1132DE0B501CFC0112309F4CCC02FB7F894332711
S1132DF01092C3071092C20710929F0181E0809342
S1132E005B022FBF0E940D02882309F4BAC08FB75A
S1132E10F894992729E020935B028FBF0E941D023A
S1132E20B0C05698579810925A0210929001539A33
S1132E30549A579A10929C01A4C082E140C05398BE
S1132E4054989FC010922601109225018FB7F894D0
S1132E509927209129018FBF80912A01811123E0B4
S1132E60409123015091240180912B01882309F082
S1132E7088C0222319F00E94850120C03FB7F8942E
S1132E8020915C02E22FFF27EE0FFF1FEE58FE4F4A
S1132E90808191814817590771F4822F8F5F809345
S1132EA05C028C3010F010925C0280919C018823AB
S1132EB011F010929C01832F99278FBF80E00E940C
S1132EC08E015FC08FB7F894992720912D01C0918E
S1132ED02E01D0912F01F09052018FBF2223A1F532
S1132EE0EFB6F89480914B01882339F58091340131
S1132EF0E82FFF27EE0FFF1FE454FE4F00811181DE
S1132F00D183C0838F5F809334018C3010F0109292
S1132F103401909134018091C607981719F481E027
S1132F2080934B0180913C01882351F481E00E94FD
S1132F308E0181E080933C0103C00E9485018E01D3
S1132F408E2D99278FBFE8018FB7F894EF2DFF27B7
S1132F50EE0FFF1FE35FFE4FD183C0832091210159
S1132F60FF2011F02B7F01C02D7F209321011092AF
S1132F702C0199278FBF05C01092260110922501BC
S1132F807ACFDF91CF911F910F91FF90EF90089529
S1132F908091B0078F3FB1F0282F3327F901EC5A05
S1132FA0FE4F80818093B0078F3F11F48093C00758
S1132FB08FEF80832F3F31F0822F0E94A51181E093
S1132FC090E0089580E090E00895CFEFD0E1DEBF77
S1132FD0CDBFFFB6F89445E150E06FEF70E084E5B3
S1132FE091E00E94071D8FEF8093B0078093C00784
S1132FF081E08EBD88E080BF83E083BF8CB59DB542
S11330004AE72CB53DB52817390708F44150442345
S113301011F0C901F6CF92B782B78917E9F32CB53D
S11330203DB592B782B78917E9F38CB59DB5821B7C
S1133030930B409635E0969587953A95E1F79093F2
S1133040B2078093B10713BE83B78EBD8EB580BF20
S113305012BE1DBC1CBC8FEF86BF86B780937C005C
S113306080B7992787709070892BD1F7D29AD19A1B
S1133070D09ADA9AD99AD89A15BA8FEF84BBD49891
S1133080DC98109289001092880080917D00846001
S113309080937D0080918A00887F826080938A007B
S11330A01DBC1CBC87B7846087BF8EB5887F8460D5
S11330B08EBD80E285BF0E94C8178823E1F712E025
S11330C006E06091B1077091B207882799272CE038
S11330D0660F771F881F991F2A95D1F720E031EEDC
S11330E040E050E00E94411D2150304029B9832F17
S11330F09927809390001BB9009395001AB82093E8
S113310099008093980010939B0000939D00109267
S11331109A0084E490E090935307809352071092AE
S1133120B4011092B60110925B0210929F011092AA
S1133130A5011092B3071092C3071092C207109210
S1133140BC071092E60110924E0710924D071092A0
S11331508D0110925E021092560710929101109206
S1133160E2011092E1011092D6011092D5018FEF85
S113317080938A01EDE3F1E08FEF9FEF91838083E9
S11331801282339621E0E934F207C1F70E94000568
S11331906093DC0480910001909101010196AA27BB
S11331A0BB278093970190939801A0939901B093C2
S11331B09A0180B7886080BF8BE083BF86EE81BFB1
S11331C087B7826087BF0E940B048BE797E09093D8
S11331D03301809332018E98B89A8C988FEF809344
S11331E0A401109264021092650210926602109279
S11331F06702B89AD69AD59A8FB7F89499272091EE
S11332000601309107018FBF3093AB012093AA01CF
S113321080910801992790939301809392018FE103
S113322080935F028AE18093DA0410926F01109216
S1133230B70710929401109269020E94C81788235C
S1133240E1F78F2D99278FBF7894E2E7F1E08DEDB8
S113325094E081939193C49621E0EA38F207C9F788
S113326010925C0210924C011092B50781E0809399
S11332709C01ECEBF1E08AE692E081939193C49691
S113328021E0E43DF207C9F71092C6071092340119
S113329010923C0181E080934B0161E00E94310275
S11332A08823E9F48FB7F894282F332780911501E8
S11332B090911601892B11F02FBF1BC081E090E083
S11332C090931601809315012FBFDD9A0E9480050B
S11332D024E130E040E050E00E943D060AC062E094
S11332E081E00E944B02882321F461E081E00E9486
S11332F04B0280E10E948E018FB7F894482F552726
S113330049C087B7992783709070892B19F4E5E039
S1133310F0E013C080B7992787709070892BD1F79C
S113332081B792B7891B8C3030F082B7853F18F48F
S1133330E3E0F0E002C0E2E0F0E087B7887BC1F4AC
S113334080917D008B7FA1F46E9912C08AB1909117
S11333509A00892B807C61F48091740082FD08C0FE
S1133360379B03C081E090E005C085E090E002C097
S113337080E090E025B78E1708F4E82FFF27EA5481
S1133380FD4FC895E02D237E2062E22BE5BF7894A3
S11333908895F8948091B0078F3F09F4B2CF282F15
S11333A03327F901EC5AFE4F80818093B0078F3F99
S11333B011F48093C0078FEF80832F3F09F4A1CFCE
S11333C04FBF822F0E94A51197CF78941F920F921E
S11333D00FB60F9211242F923F924F925F926F92E9
S11333E07F928F929F92AF92BF92CF92DF92EF9291
S11333F0FF920F931F932F933F934F935F936F937A
S11334007F938F939F93AF93BF93CF93DF93EF9368
S1133410FF93CCB5DDB580E286BF8FB7F894282E34
S11334200E9480059E01261B370B2901662457FC48
S11334306094762C460E571E681E791E80911A01E0
S113344090911B018530910521F0069709F0E0C0A9
S1133450BFC086E090E090931B0180931A0131E095
S1133460332E30928B0110921C0180E00E94A3063F
S1133470E0919501F091960141AABB27A72D962DC5
S1133480852D80ABC301AA27BB2787A7872D992742
S1133490AA27BB2786A7E0919501F091960185A5FF
S11334A0882309F484C06081655077274F01860E14
S11334B0971EF4012081E1808281A3809927AA27A5
S11334C0BB27BA2FA92F982F88273327442755279E
S11334D0522F442733272227FF240027112787014F
S11334E0FF24EE242E293F29402B512BBB24CC242E
S11334F0DD242A293B294C295D29822B932BA42BDB
S1133500B52B84199509A609B7098383292F3A2F66
S11335104B2F552722839D014427552721838B2F29
S11335209927AA27BB278083C09824E0A40180E0C0
S113353090E00E94950BC09AF4012081E180828181
S1133540A3809927AA27BB27BA2FA92F982F8827AA
S1133550332744275527522F442733272227FF2474
S1133560002711278701FF24EE242E293F29402B11
S1133570512BBB24CC24DD242A293B294C295D2949
S1133580822B932BA42BB52B840D951DA61DB71D43
S11335908383292F3A2F4B2F552722839D014427BC
S11335A0552721838B2F9927AA27BB278083E09156
S11335B09501F0919601818185FF02C030925301FB
S11335C083E00E94DB0D87B78F7E87BF84997AC022
S11335D010928B0181E00E94A306E0919501F09185
S11335E09601818185FF0FC087E090E090931B01D5
S11335F080931A010E94800520E031E040E050E011
S11336000E943D0603C080E00E946F0E849B5AC056
S113361080911C01882391F580918B01882371F599
S113362011E010938B010E94A30680B32091AF0791
S1133630283098F4E091B407E20FFF27E770F070A8
S1133640EE0FFF1FEE0FFF1FE55AF84F4082518225
S1133650628273822F5F2093AF0710931C01D09373
S1133660B301C093B20184992DC0992744E0969583
S113367087954A95E1F7182F117001C010E08091E9
S11336808B018130F9F410928B010E94A3061092F1
S11336901C011123B9F48091B2019091B301C81BAC
S11336A0D90B2A9778F48091AF07882319F08150B9
S11336B08093AF078091950190919601009711F046
S11336C00E94F1042FBEFF91EF91DF91CF91BF9142
S11336D0AF919F918F917F916F915F914F913F91A6
S11336E02F911F910F91FF90EF90DF90CF90BF909B
S11336F0AF909F908F907F906F905F904F903F908E
S11337002F900F900FBE0F901F901895ACE2B0E071
S1133710ECE8FBE10C94821D222E332E442E552E10
S1133720662E772E882E992EFE013196A8E01192EE
S1133730AA95E9F729823A824B825C826D827E8265
S11337408F829886FE013996B8E01192BA95E9F70E
S1133750A986BA86CB86DC86ED86FE860F87188B13
S113376089819A81AB81BC8189A79AA7ABA7BCA7A1
S11337707C018D018FEF9FEFA0E0B0E0E822F922F9
S11337800A231B2389A59AA5ABA5BCA51D01442426
S1133790552489859A85AB85BC858DA39EA3AFA34B
S11337A0B8A75C016D018FEF9FEFA0E0B0E0A82205
S11337B0B922CA22DB228DA19EA1AFA1B8A53D01E9
S11337C088249924C801B701A60195010E94631DAC
S11337D069A37AA38BA39CA3C801B701A401930195
S11337E00E94631D7B018C01C201B101A6019501F8
S11337F00E94631D5B016C01C201B101A40193012C
S11338000E94631D3B014C01EA0CFB1C0C1D1D1D99
S113381089A19AA1ABA1BCA19D01442755272E0DD6
S11338203F1D401F511F2A153B054C055D0540F403
S113383080E090E0A1E0B0E0680E791E8A1E9B1E35
S1133840CA01AA27BB27860D971DA81DB91D8D8FF8
S11338509E8FAF8FB8A3A9013327222789A19AA1EC
S1133860ABA1BCA1A070B070280F391F4A1F5B1F09
S1133870298F3A8F4B8F5C8FA98CBA8CCB8CDC8CC4
S1133880ED8CFE8C0F8D18A1FE01719698E01192BB
S11338909A95E9F7ED8AFE8A0F8B188F2D813E8168
S11338A04F8158856DA17EA18FA198A50E94631DAB
S11338B03B014C012D853E854F85588969A57AA524
S11338C08BA59CA50E94631D2D893E894F89588D27
S11338D0260F371F481F591F260D371D481D591D18
S11338E02D8B3E8B4F8B588F6D887E888F88988C5C
S11338F02A2D3B2D4C2D5D2D662D772D882D992D50
S1133900E2E1AC960C949E1DA0E1B0E0EAE8FCE193
S11339100C94821D222E332E442E552E662E772E85
S1133920882E992E002309F466C088E0FE013196A2
S113393011928A95E9F729833A834B835C836D83DB
S11339407E838F829887E0E2E01B1E16CCF52D81E2
S11339503E814F815885602F772767FD7095DA0186
S1133960C901062E04C0B695A795979587950A9424
S1133970D2F78D879E87AF87B88B04C0220F331F81
S1133980441F551FEA95D2F789819A81AB81BC8186
S113399004C0B695A795979587956A95D2F7282B75
S11339A0392B4A2B5B2B29873A874B875C872984E1
S11339B03A844B845C846D847E848F8498881BC095
S11339C01D861E861F86188A2E2F332727FD3095C5
S11339D0309521953F4F8D819E81AF81B88504C07C
S11339E0B695A795979587952A95D2F789879A874B
S11339F0AB87BC87DCCF222D332D442D552D662D6E
S1133A00772D882D992DE2E160960C949E1DDC01A2
S1133A1001C06D9341505040E0F70895991B79E03F
S1133A2004C0991F961708F0961B881F7A95C9F74A
S1133A3080950895AA1BBB1B51E107C0AA1FBB1F99
S1133A40A617B70710F0A61BB70B881F991F5A9526
S1133A50A9F780959095BC01CD01089597FB092E97
S1133A6007260AD077FD04D0E5DF06D000201AF43B
S1133A70709561957F4F0895F6F7909581959F4FC6
S1133A800895A1E21A2EAA1BBB1BFD010DC0AA1F9B
S1133A90BB1FEE1FFF1FA217B307E407F50720F0B3
S1133AA0A21BB30BE40BF50B661F771F881F991F2E
S1133AB01A9469F760957095809590959B01AC0177
S1133AC0BD01CF010895629FD001739FF001829FD1
S1133AD0E00DF11D649FE00DF11D929FF00D839F99
S1133AE0F00D749FF00D659FF00D9927729FB00D36
S1133AF0E11DF91F639FB00DE11DF91FBD01CF0149
S1133B00112408952F923F924F925F926F927F9269
S1133B108F929F92AF92BF92CF92DF92EF92FF92D9
S1133B200F931F93CF93DF93CDB7DEB7CA1BDB0B85
S1133B300FB6F894DEBF0FBECDBF09942A8839882A
S1133B4048885F846E847D848C849B84AA84B98431
S1133B50C884DF80EE80FD800C811B81AA81B9813D
S1133B60CE0FD11D0FB6F894DEBF0FBECDBFED0151
S1073B700895FFCFE2
S1133B740100FFFFFFFF010022FFFFFFFFF001240C
S1073B8402F0010046
S9030000FC
